:020000040800F2
:10000000301F0020E9010008473B0008FB350008CD
:10001000453B0008451600082D3F00080000000081
:100020000000000000000000000000004B3B000842
:100030002318000800000000493B00084D3B000861
:10004000030200080302000803020008030200087C
:10005000030200080302000803020008030200086C
:10006000030200080302000803020008ED1700085D
:10007000030200080302000803020008030200084C
:10008000030200080302000803020008030200083C
:10009000030200080302000803020008030200082C
:1000A000030200080302000803020008030200081C
:1000B000CD3B000803020008030200080302000809
:1000C00003020008030200080302000803020008FC
:1000D00003020008030200080302000803020008EC
:1000E00003020008030200080302000800F002F8FF
:1000F00000F06AF80AA090E8000C82448344AAF158
:100100000107DA4501D100F05FF8AFF2090EBAE855
:100110000F0013F0010F18BFFB1A43F0010318473B
:10012000EC5D00000C5E00000A444FF0000C10F87B
:10013000013B13F0070408BF10F8014B1D1108BF65
:1001400010F8015B641E05D010F8016B641E01F805
:10015000016BF9D113F0080F1EBF10F8014BAD1C55
:100160000C1B09D16D1E58BF01F801CBFAD505E073
:1001700014F8016B01F8016B6D1EF9D59142D6D3CD
:10018000704700000023002400250026103A28BFF5
:1001900078C1FBD8520728BF30C148BF0B607047F9
:1001A000662905F02A85642900F0CA80002070477E
:1001B0001FB500F063FC04000020002104F076FD70
:1001C000E0601FBD10B510BD00F05CFD1146FFF7EB
:1001D000EFFF04F047FA00F07AFD03B4FFF7F2FFF7
:1001E00003BC00F0BDFD00000948804709480047F6
:1001F000FEE7FEE7FEE7FEE7FEE7FEE7FEE7FEE7D7
:10020000FEE7FEE704480549054A064B7047000033
:10021000C93B0008ED00000830190020301F002005
:10022000301B0020301B002053EA020C00F06980D4
:100230002DE9F04B4FF00006002B1FBFB3FA83F5FA
:1002400003FA05F424FA05F65E4012BF1643B2FA2B
:1002500082F502FA05F4C5F120051EBF22FA05FC5D
:1002600044EA0C04203556EA044C4FEA144418BF03
:10027000641C4FF000084FF00009904271EB030C32
:1002800039D3002919BFB1FA81F701FA07F6B0FA9C
:1002900080F700FA07F6C7F120071EBF20FA07FC17
:1002A00046EA0C062037B6FBF4FCA7EB0507103F27
:1002B00007F01F0BCBF120060CFA0BFB2CFA06F60D
:1002C00044BFB3460026202FA4BF5E464FF0000B6C
:1002D0005BEA060C08BF4FF0010B19EB0B09ABFBF7
:1002E000027C48EB0608C01B06FB02CC0BFB03CCD0
:1002F00071EB0C01C1E70B46024641464846BDE89A
:10030000F08B13B54FF000004FF00001AFF3008009
:10031000BDE81C40704700000FB41CB5074B06AA8F
:100320007B4469460090059800F08FFB00206946E9
:1003300000F09EFB1CBC5DF814FB00004D070000A4
:100340002DE9F0410646002410687529314616A5AE
:1003500010D0AFF30080002802DA404213A507E076
:1003600031688A0701D512A502E0490704D511A515
:10037000012401E0AFF3008000210A2206F12407E6
:1003800009E0B0FBF2FCB0FBF2F302FB1C003030E2
:1003900078541846491C0028F3D123462A46304693
:1003A000BDE8F04100F0E3B8000000002D000000BF
:1003B0002B000000200000002DE9F0474FF0000A5C
:1003C00089460446C0F820A02046E16888470028F6
:1003D00076D0252806D0D4E901219047206A401C18
:1003E0002062F1E7E168204600258847C4F81CA098
:1003F00006460027C4F818A02A2E09D0304604F07B
:10040000DBF838B304EB8708303EC8F8186019E011
:1004100059F8041B204604EB87029161E168884784
:10042000012F064618D1E069002820DA25F02005C2
:100430001DE0D8F8180000EB800006EB40003038D3
:10044000C8F818002046E1688847064604F0B4F86A
:100450000028EED1012F0AD02E2E08D12046E168C7
:1004600088477F1C0646022F45F02005C4DBA069A3
:10047000002803DA404245F00105A061E80701D0F9
:1004800025F01005B6B1A6F14100192802D8203692
:1004900045F400654A463146204625604D46FFF743
:1004A0007FFE58B1012806D0ED1D25F0070000F1B0
:1004B000080989E704E005F1040985E730468AE781
:1004C000206ABDE8F08710B5431C02E010F8011B5C
:1004D00071B18107FAD14FF0013202C88C1A8C43F6
:1004E00014EAC211F9D0C01A0A0603D0C01E10BD0A
:1004F000C01A10BD0A0401D0801E10BD0902FCD034
:10050000401E10BD4FF0000200B5134694469646BB
:10051000203922BFA0E80C50A0E80C50B1F1200116
:10052000BFF4F7AF090728BFA0E80C5048BF0CC0C4
:100530005DF804EB890028BF40F8042B08BF704722
:1005400048BF20F8022B11F0804F18BF00F8012B94
:10055000704770477047704710B500F093FA006815
:1005600010BD10B5044600F08DFA046010BD2DE9F1
:10057000F0470D4699469246044600F1240801686A
:10058000880604D5E06921F01001216000E0012017
:10059000A84201DD471B00E00027A1697A1902EBA0
:1005A0000900081AA0612078C00602D42046AFF3E3
:1005B0000080002608E0D4E901211AF806009047DF
:1005C000206A401C761C20624E45F4DB2078C00671
:1005D0000AD52046AFF3008006E0D4E9012130209F
:1005E0009047206A401C2062381EA7F10107F4DC06
:1005F00007E0D4E9012118F805009047206A401C63
:100600002062281EA5F10105F3DC2046AFF300802F
:100610002078000602D50220BDE8F0870120FBE724
:1006200070472DE9FF4F0C461E464FF0FF378BB049
:10063000D2E90001DDF860800A908A46C1F30A55CC
:1006400005B93D46002108464FF00000BAF1000F01
:1006500000F4400005DA00EB80004FF4400101EAAD
:1006600050004FEA9059B9F1010F00DDB9460A98E0
:1006700050EA4A000ED044F61050A5F2FF3545432B
:100680002F14B8F1000F1ED07542291E1EDDC9F1CE
:1006900000021CE0B8F1010F4FF0000001D0302142
:1006A00003E0F24305E02154401CB042FBDB30463E
:1006B0000022002121540B99C1F80880C1E90020D3
:1006C0000FB0BDE8F08FBD1B6D1CDEE74A4600DAB7
:1006D000694206A800F060FA06AB93E8070003AB96
:1006E00083E8070050460A9900F041FB8DE80700B7
:1006F000A0F500501F3800900398002D0ADD42F24B
:100700001F014A460844002303A90390684600F0ED
:10071000AAFD09E0A0F500504A461F38002303A9AE
:100720000390684600F0B4FD8DE807000004000C5B
:1007300003D04FF0FF30410800E01046B8F1000F41
:1007400003D00022009215461EE0751E05D400F06D
:100750009DF9303262556D1EF9D5B346012208432A
:1007600002D000227F1C04E02078302801D1002232
:100770007F1E002A099784D01DE0112D07DA00F0B2
:1007800085F9303262556D1C50EA0102F5D10843FB
:1007900002D00098C8B10EE00021681E05E0235C7D
:1007A000625C63542254401E491C8142F7DBAB4615
:1007B000A81B401E0990002004F80B000B98099A12
:1007C000C0F80880C0E9002B7AE711264FF0000836
:1007D00057E72DE9F04F88460446D21D22F0070165
:1007E00091B0D1E90001CDE90A0103F0A0FB024676
:1007F0000B98C00F01D02D2007E02068810701D59C
:100800002B2002E0202101EAC000032A099001D038
:10081000072A05DB03464146204600F07DF90BE13F
:100820002078800601D5E06900E00620B8F1650F68
:10083000814606D0B8F1660F18D0B8F1670F70D1B5
:1008400031E00020B9F1110F009001DB112301E02C
:1008500009F101030AAA01A90CA8FFF7E2FEDDE9EC
:100860000C70002609F10105834647E001204B4644
:1008700000904FF000470AAA01A90CA8FFF7D1FE8B
:10088000DDE90DB00C995D46002610B909F10100B3
:100890000D18B9EB050003D4C0F1FF3609F10105CD
:1008A000A5EB09002BE0B9F1010F01DA4FF00109C6
:1008B0000020B9F1110F0090484601DD112300E03E
:1008C00003460AAA01A90CA8FFF7ABFEDDE90C70EC
:1008D0004D4600268346207800070AD4AB4500DA4F
:1008E0005D4601A8012D04DD411911F8011C3029D4
:1008F00007D04F4502DA17F1040F04DA01208246CF
:100900000FE06D1EEEE7002F02DCED1B3E4403E01E
:10091000781CA84200DD7D1CB81B00F1010A4FF0D5
:1009200000472078000703D4AA4501DB4FF0FF3AC7
:100930000021B7F1004F0DF143088DF8431024D08A
:1009400002202B23002F01DA7F422D230A21021ED1
:10095000A0F1010000DC5FB197FBF1FC97FBF1F225
:1009600001FB1C7C17460CF1300C08F801CDEEE7BA
:10097000A8F1010003702188090501D5452100E097
:100980006521A0F1010800F8011C09980FA9A1EB4D
:100990000807FF1D00B10120411901EBEA70A169B0
:1009A0003844081A401EA0612078C00602D42046B0
:1009B000AFF30080099828B1D4E901219047206A5B
:1009C000401C20622078C00622D52046AFF300806C
:1009D0001EE0002E04DBB34502DD01A8805D00E0CF
:1009E0003020D4E901219047206A401C2062761C07
:1009F000AAF101005FEA000A0AD100F03FF8C068DE
:100A00000168405CD4E901219047206A401C2062C3
:100A1000281EA5F10105DCDC07E0D4E9012118F866
:100A2000010B9047206A401C2062381EA7F1010785
:100A3000F3DC2046AFF30080032011B041E6000054
:100A400001694A1C02610878704700B58FB0CDE992
:100A500001310021059105497944CDE90310114682
:100A60006846FFF7A9FC0FB000BD0000E5FFFFFFDF
:100A70000A6802F8010B0A607047000000487047DE
:100A8000EC18002000487047CC18002030B5B0F1B9
:100A90000A024FEA900E71F100034EEA817EB0EB3C
:100AA0000E0061EB91014FEA101E4EEA017E10EB41
:100AB0000E0041EB11114FEA102E4EEA016E10EBC1
:100AC0000E0041EB11214FEA104E4EEA014E10EBA1
:100AD0000E0041EB1141401841F100014FEAD000F6
:100AE00040EA41704FEAD10110EB80054FEA8104E2
:100AF00044EA907444EB01046D1944EB0404521B66
:100B0000A3414FF0000348BF0A3200D530BD401C5E
:100B100041F1000130BD00002DE9F0411F460446BF
:100B200003260168072A01F4006004DB08B116A55A
:100B300005E016A503E008B115A500E015A521F014
:100B400010002060A069C01EA0610FB1401EA0610E
:100B50002046AFF300804FB1D4E9012138469047D9
:100B6000206A401C2062C01C206206E0206AFAE76E
:100B7000D4E9012115F8010B9047761EF8D22046E2
:100B8000AFF30080BDE8F0814E414E006E616E0013
:100B9000494E4600696E66002DE9F04781461646CB
:100BA0008AB0354878440DC88DE80D003248784445
:100BB000801C03AC0DC884E80D0041F69B3008444E
:100BC000372190FBF1F290FBF1F5A5F1800501FBD7
:100BD00012041B3C02D56442012000E00020DFF833
:100BE00098A080460027FA44AAF1BE0A0EE0E0076A
:100BF0000AD03246684607EB470101230AEB810120
:100C000000F046FB8DE8070064107F1C002CEED13D
:100C1000194F7F44AE3F19E0E80715D007EB0410E9
:100C20000DF1180A90E80E008AE80E00C068F04244
:100C300001D1981908903246012306A903A800F0B3
:100C400027FB03AB83E807006D10641C002DE3D184
:100C50004FF0010332466946B8F1000F03A802D0F5
:100C600000F001FB01E000F013FBC9E90001C9F845
:100C700008200AB0BDE8F0874C53000000487047D8
:100C8000CC1800207546FFF7F9FFAE46050069460F
:100C9000534620F00700854618B020B5FFF7B2FA9A
:100CA000BDE820404FF000064FF000074FF000086D
:100CB0004FF0000B21F00701AC46ACE8C009ACE8EE
:100CC000C009ACE8C009ACE8C0098D46704710B552
:100CD0000446AFF300802046BDE81040FFF77DBA20
:100CE0004FF0013C50F8042B51F8043B9A4221D1BB
:100CF000A2EB0C03934313EACC1317D150F8042B47
:100D000051F8043B9A4215D1A2EB0C03934313EA2A
:100D1000CC130BD150F8042B51F8043B9A4209D163
:100D2000A2EB0C03934313EACC13DBD04FF000008B
:100D3000704700BFD01A01BAB1FA81F101F0180171
:100D400022FA01F0CB40C1F12001DBB2C0B2C01ADF
:100D50002CFA01F3D11A914311EAC311E6D170477D
:100D600001491820ABBEFEE72600020070475FEA8B
:100D7000400C08BF91F0000F4FEA8C234FEAC122CC
:100D800043EA51514FEA1C5018BF00F5F0404FEABA
:100D9000300018BF41F000415FEA6C5C00F0298030
:100DA000BCF1FF3F08BF40F080407047130C06BF06
:100DB00012044FF0100C4FF0000C130E04BF12027F
:100DC0000CF1080C130F04BF12010CF1040C930F6B
:100DD00004BF92000CF1020CD30F04BF52000CF1BF
:100DE000010C11464FF00002A0F11F00A0EB0C0017
:100DF000704711F0004F08BF704731F000413FF4D9
:100E0000D5AF0B0C06BF09044FF0100C4FF0000CCF
:100E10000B0E04BF09020CF1080C0B0F04BF0901F3
:100E20000CF1040C8B0F04BF89000CF1020CCB0FEA
:100E300004BF49000CF1010CCCF12003A0EB0C0025
:100E400022FA03F302FA0CF241EA030100F1010075
:100E5000704720F07F4C80EA030023F07F47ACEB23
:100E6000070303F57C5300F0004003F1FF032DE975
:100E700080494FEA154B09B44FEA144325EA0B4E5B
:100E800024EA03480FF2042606EB132749083E78AC
:100E90005FEA320203FB0667C7F5000707FB06F6A9
:100EA0004FEA54374FEAD64606F1020607FB066CB6
:100EB000CCF1005C4FEA1C472CEA074C07FB06F418
:100EC0000CFB06F504EB15464FEA961634BF0020DE
:100ED0004FF000404FEAD13706FB07FC4FEA1C4CAD
:100EE0000CFB0BF7D21B03FB0CF761EB07010CFBB0
:100EF0000EF7B0EB074072EB17420CFB08F734BF5C
:100F0000A2EB0742B2EB074261EB17414FEA0C44F8
:100F10004FEA910706FB07FC4FEA1C4C0CFB0BF752
:100F2000B0EBC74072EB573203FB0CF734BFA2EBB8
:100F3000C742B2EBC74261EB57310CFB0EF7B0EB87
:100F4000C70072EB57720CFB08F734BFA2EBC70265
:100F5000B2EBC70261EB5771039F4FEA816141EA2F
:100F6000921104EBCC044FEAD1374FEA826206FBC0
:100F700007FC42EA90124FEA80604FEA1C4C0CFBDF
:100F80000BF7D21B03FB0CF761EB07010CFB0EF711
:100F9000B0EB074072EB17420CFB08F734BFA2EB33
:100FA0000742B2EB074261EB17414FEA8C554FEA1B
:100FB000910704EB9C2406FB07FC4FEA1C4C0CFB3E
:100FC0000BF7B0EBC74072EB573203FB0CF734BFA3
:100FD000A2EBC742B2EBC74261EB57310CFB0EF7F5
:100FE000B0EBC70072EB57720CFB08F734BFA2EBF3
:100FF000C702B2EBC70261EB577115EB4C254FEA04
:10100000816141EA92114FEA82624FEAD13742EAA6
:10101000901206FB07FC44F100044FEA80604FEA9F
:101020001C4C0CFB0BF7D21B03FB0CF761EB07010D
:101030000CFB0EF7B0EB074072EB17420CFB08F706
:1010400034BFA2EB0742B2EB074261EB174115EB4D
:101050001C154FEA813141EA92414FEA823242EA5D
:1010600090424FEA80304FEA0C7644F1000448EA9F
:1010700003434EEA0B484FF0000EB2EB080C71EB45
:10108000030724BF624639464EEB0E0E4FF0000BAD
:101090000018524149414BEB0B0BB2EB080C71EBC2
:1010A00003077BF1000B24BF624639464EEB0E0E60
:1010B0004FF0000B0018524149414BEB0B0BB2EBC8
:1010C000080C71EB03077BF1000B24BF6246394625
:1010D0004EEB0E0E51EA020718BF46F0010616EB62
:1010E0000E7655F1000254F1000103D5BDE88901E7
:1010F000BDE80088BDE88901BDE80048B619524145
:1011000041EB0101A3F10103704780807F7E7D7C6C
:101110007B7A7978777676757473727171706F6E89
:101120006E6D6C6C6B6A6A69686867666665646434
:10113000636362616160605F5F5E5E5D5D5C5C5BBE
:101140005B5A5A595958585757565655555554542D
:10115000535352525251515050504F4F4F4E4E4D8B
:101160004D4D4C4C4C4B4B4B4A4A4A4949494848D7
:101170004847474747464646454545444444444317
:1011800043434342424242414141002B9C4630D4BA
:1011900077002BD01CB54FEA370703B44FF010008F
:1011A0004FF01001BAF1000F06D0BCF1000FDCBF08
:1011B00040F0080040F008014FF000000FBCBDE80F
:1011C00010400BF1010BBBF1010F08BF5FEA1707DD
:1011D00022BF12F1010211F101014FF0004143F170
:1011E000000300F0004043EA00007047F9D35708BD
:1011F000D0E746EA064613F1400F4FEA16461FDDD8
:1012000013F1200FDFBF16430A46002120335B4253
:10121000BED0C3F1200746EA064602FA07F74FEAB6
:10122000164646EA0706C3F1200722FA03F201FA3E
:1012300007F721FA03F14FF0000342EA0702A7E79C
:1012400046EA020646EA06464FEA164646EA01061E
:10125000BCBF46EA0646360C4FF000034FF00002D2
:101260004FF0000194E72DE9804C9A46934670B404
:1012700091E8380007C831EA400C48BF34EA430C13
:1012800003D5FFF7E6FDFFF780FFF0BCBDE8008C5B
:101290002DE9804C9A46934670B491E8380007C80F
:1012A00010F0804F08BF13F0804F03D100F005F815
:1012B000FFF76BFFF0BCBDE8008C20F07F4780EAB1
:1012C000030023F07F4C07EB0C03A3F57C5300F0E5
:1012D0000040A3F1FE0392F0000F00F0B38095F000
:1012E000000F00F077802DE901494FEA11404FEAE5
:1012F000144621EA004800FB06FC24EA064708FBE6
:1013000006F607FB08F800FB07F718EB06484CEB5E
:10131000164C4FEA124B18EB07484FEA15464CEBB8
:10132000174022EA0B4E0BFB06FC25EA06470EFB94
:1013300006F607FB0EFE0BFB07F71EEB064E4CEB0B
:10134000164C4FF000061EEB074E4CEB174B18EBFC
:101350000B0840F1000018EB0E0B58EB000840F1B1
:1013600000008F1A4FF000013CBFC943661B14BF39
:10137000B5EB040C00213CBFC943F61B4FEA1744F0
:101380004EEA8E0E27EA04454FEA1C4704FB07622B
:101390002CEA074C05FB07F70CFB05F604FB0CFCDD
:1013A00016EB074642EB174216EB0C4642EB1C428B
:1013B0001BEB060658EB0202414146EA9E0601D5A8
:1013C000BDE80189B619524141EB0101A3F10103C6
:1013D000BDE801894FEA14454FEA114724EA054662
:1013E00021EA074C05FB07F406FB07F70CFB06F1A7
:1013F00005FB0CFC11EB074144EB17444FEA124785
:1014000011EB0C4144EB1C4422EA074C05FB07F2AC
:1014100006FB07F70CFB06F605FB0CFC16EB074674
:1014200042EB174216EB0C4642EB1C456A1854F18E
:10143000000148BF7047B619524141EB0101A3F1C9
:101440000103704795F0000F37D04FEA11424FEA81
:10145000144721EA024624EA074C02FB07F106FB87
:1014600007F70CFB06F402FB0CFC14EB074441EB02
:1014700017414FEA154714EB0C4441EB1C4125EA98
:10148000074C02FB07F506FB07F70CFB06F602FB11
:101490000CFC16EB074645EB174516EB0C4645EBE7
:1014A0001C42121951F1000148BF7047B619524150
:1014B00041EB0101A3F1010370474FEA14454FEAE4
:1014C000114724EA054621EA074C05FB07F106FB14
:1014D00007F70CFB06F24FF0000605FB0CFC12EBC5
:1014E000074241EB174112EB0C4251EB1C4148BF44
:1014F0007047921841EB0101A3F10103704700000E
:1015000070B5044600688168C943C90717D181686E
:1015100021F00101816000F0BBFD05460AE000BF3B
:1015200000F0B6FD401B022804D920688068C04343
:10153000C00706D020688068C043C007F0D00020F4
:1015400070BDA06A40F01000A062E06A40F00100A7
:10155000E062012070BD10B50146406A826A12F057
:10156000500F05D0006A026BBDE8104008461047D6
:10157000816A41F40071816201688968C1F3424166
:1015800007290CD1017B51B9816A21F480718162F4
:10159000816AC90403D4816A41F00101816200F0CB
:1015A000FBF910BD10B5406A816A41F040018162CB
:1015B000C16A41F00401C16200F0F0F910BD10B53C
:1015C000406A00F0EAF910BDF8B50026044600961E
:1015D00000688168C943C9072DD0816841F00101C5
:1015E0008160164816490068B0FBF1F000E0401E2B
:1015F00000900028FBD100F04BFD054616E000BF2F
:1016000000F046FD401B022810D920688068C043C6
:10161000C0070BD0A06A40F01000A062E06A40F062
:101620000100E06284F824600120F8BD2068806831
:10163000C043C007E4D10020F8BD000054160020CC
:1016400040420F00FEE700002DE9F041204DA5F1DA
:101650000A0628883188401A04F058F90746A5F18F
:10166000D600C189008A081A04F050F904463946A8
:1016700004F04EF8A5F15607786268887188401A20
:1016800004F044F90146204604F042F8B862A88804
:10169000B188401A04F03AF90146204604F038F8BF
:1016A000F862E888F188401A04F030F901462046D3
:1016B00004F02EF8386328893189401A04F026F99D
:1016C0000146204604F024F87863BDE8F08100006C
:1016D000D60000202DE9F041124C134EA4F10A056A
:1016E0004FF40057DFF8448013E0002036F8101064
:1016F00059B134F81020914201D924F8101035F86E
:101700001020914201D225F81010401CC0B20528CB
:10171000ECD33946404600F0B1FC0028E5D1BDE8E5
:10172000F0810000D6000020721800200010014057
:101730002DE9F0412B4D044600882988401A04F019
:10174000E5F8A5F14C06716A04F00CF90746A5F11D
:10175000CC00008A04F0F2F88046394603F070FFAE
:1017600004F0B4F8204F388060886988401A04F08B
:10177000CDF8B16A04F0F6F80146404603F060FF88
:1017800004F0A4F87880A088A988401A04F0BEF874
:10179000F16A04F0E7F80146404603F051FF04F017
:1017A00095F8B880E088E988401A04F0AFF8316B0A
:1017B00004F0D8F80146404603F042FF04F086F8F2
:1017C000F88020892989401A04F0A0F8716B04F090
:1017D000C9F80146404603F033FF04F077F838813A
:1017E000BDE8F081CC0000207C180020014800F00A
:1017F00033BA00008818002030B590F8405001241A
:10180000AC40C56B6C60046863604368102B036870
:1018100003D099600068C26030BD9A600068C16002
:1018200030BD70472DE9F0471748FFF781FF164C90
:101830000A34208921888146E788401A668807EBA8
:1018400040008846801B04F061F8A188054608EB3B
:10185000060039440144DFF834A001EB090004F02C
:101860006DF80146284603F053FF03F0BDFE084A19
:10187000084B03F0C5FC03F02FFACAF86C0080F0A7
:101880000040BDE8F0870000721800200000002032
:1018900048E17A14AEC7314072B6FEE7F8B50024CD
:1018A000009490F824202546012A12D0012280F8C5
:1018B00024204A681F23072A0DD20668776B521E20
:1018C00002EB820293409F430B6893401F43776370
:1018D00019E00220F8BD06680D2A0AD2376BD21F24
:1018E00002EB820293409F430B6893401F43376390
:1018F00009E0F76A0D3A02EB820293409F430B68BE
:1019000093401F43F7620A68072306680A2A0AD32E
:10191000F7680A3A02EB420293409F438B68934078
:101920001F43F76008E0376902EB420293409F4390
:101930008B6893401F4337610A68102A01D0112A2F
:1019400020D1124B02689A4217D193681B0219D416
:10195000936843F4000393600968102912D10C497D
:101960000C4A0968B1FBF2F101EB8101490000E08A
:10197000491E00910029FBD104E0816A41F0200159
:101980008162012480F824502046F8BD00240140E3
:101990005416002040420F00704770477047000007
:1019A0002DE9F0414FF0000704003D467ED0A06ACB
:1019B000002628B9E66284F82460204600F07EF80C
:1019C0002046FFF79DFDA16AC90600D420B1A06A98
:1019D00040F01000A06269E0A16A21F4885141F052
:1019E0000201A1626268E169237B0A4347EA43017D
:1019F0000A43A1684FF48077B94209D0012907D082
:101A00005FF0000194F814C0BCF1010F02D00AE0AD
:101A10003946F7E7F3B1A36A43F02003A362E36A10
:101A200043F00103E3622368D3F804C02CF4694C4B
:101A30004CEA010CC3F804C021688B68DFF870C061
:101A400003EA0C0313438B60A168B9420BD0012950
:101A500009D00CE0DFF85CC0A3690CEB43330B4307
:101A600043F40061DFE7218A0D05A5F580152168A3
:101A7000CB6A23F470032B43CB62216889680E4B39
:101A80001940914208D1E662A16A21F0020141F0B9
:101A90000101A162BDE8F081A06A20F0020040F0DF
:101AA0001000A062E06A40F00100E0620120F1E76E
:101AB000FDF7E1FF00E0FFFFFE0E1FFF70B586B0EF
:101AC00000250646009501950295039500681A4980
:101AD00088422ED11949886940F40070886188696C
:101AE00000F400700490886940F0040088618869FF
:101AF000694600F0040004901F200090032001902C
:101B00000F4800F0CBF9104C0E48C4E900058020C6
:101B1000C4E9025040002061800060612020C4E9D7
:101B20000605204600F042F908B1FFF7B5FE346221
:101B3000666206B070BD0000002401400010024043
:101B40000008014008000240881800202DE9F047F5
:101B5000894604463B4900683B4F0E1D904688422B
:101B600001D0B84207D1306810F4702F03D001259E
:101B70002846BDE8F08794F8240001280CD0012005
:101B800084F824002046FFF71FFD05004FF00000F9
:101B900004D084F82400EBE70220EAE7A16A40F6CB
:101BA0000162914341F48071A1622168B94218D168
:101BB000326812F4702F14D0A16A41F48011A1622E
:101BC0003168490505D5A16A21F4005141F48051DD
:101BD000A162A16AC9040AD5E16A21F00601E162A5
:101BE00006E0A26A22F48012A2624968E9E7E06294
:101BF00084F82400216A15488862216A1448C86262
:101C0000216A1448086321686FF0020008602068A8
:101C1000816841F480718160216843464A464C31B5
:101C2000206A00F0F1F820688168C1F34241072979
:101C3000816803D041F48011816099E741F4A001EB
:101C4000FAE7000000240140002801405715000871
:101C5000BF150008A51500082DE9F05FC16B0C68E1
:101C600001680B68D0F840C0042202FA0CF2494D1A
:101C7000DFF824A1494E4A4FDFF828B1DFF828E108
:101C800022422CD05A072AD50A68920603D40A6841
:101C900022F004020A600168A94201D1042219E07D
:101CA000514501D1402215E0B14202D14FF480628A
:101CB00010E0B94202D14FF480420BE0594502D105
:101CC0004FF4802206E0714502D14FF4800201E01A
:101CD0004FF080622F4908394A60C16A3BE04FF0FB
:101CE000020808FA0CF818EA040F4FF000094FF048
:101CF000010235D05FEA837832D50B689B0605D4A4
:101D00000B6823F00A030B6080F821200168A942C8
:101D100001D1022219E0514501D1202215E0B14242
:101D200002D14FF4007210E0B94202D14FF40052D8
:101D30000BE0594502D14FF4003206E0714502D163
:101D40004FF4001201E04FF00072124908394A6066
:101D500080F82090816A00291AD0BDE8F05F08471A
:101D6000082505FA0CF5254212D01B0710D50B6883
:101D700023F00E030B6090F84010C36B02FA01F1E0
:101D80005960826380F8212080F82090016BE2E79F
:101D9000BDE8F09F080002401C00024030000240F5
:101DA00044000240580002406C00024030B528B3A5
:101DB00008C8134914221944B1FBF2F18900C16328
:101DC00010498163022141771A6843F6F0718A4312
:101DD000D0E900142143D0E902452C432143046992
:101DE000214344692143846921431143196000213F
:101DF0004163012242770177084630BD012030BDA2
:101E0000F8FFFDBF0000024070B5044690F82000C6
:101E1000002501280CD0012084F8200094F82160CE
:101E20000020012E06D084F820000225284670BD2F
:101E3000022070BD022684F82160A0632068066835
:101E400026F0010606602046FFF7D6FCE06A00286F
:101E50002068016802D041F00E0106E021F0040183
:101E600001602068016841F00A0101602068016892
:101E700041F001010160D9E770B5044600F008F9AE
:101E80000546601C02D004480078044400F000F9C4
:101E9000401BA042FAD370BD481600202DE9F84F30
:101EA000DFF8B891002409F1040A0AF1040B234673
:101EB0000F270BF1040EC9E00125A5402A40AA42D4
:101EC0007DD1674ED1F804C0ACEB0608B44532D0E2
:101ED00014DCBCF1030F3AD009DCBCF1000F2AD0AE
:101EE000BCF1010F1CD0BCF1020F31D11DE0BCF1DF
:101EF000110F17D0BCF1120F2AD119E0B8F5881FC5
:101F000019D006DCB8F5803F15D0B8F5801F1FD179
:101F100011E0B8F5001F0ED0B8F5041F18D10AE083
:101F2000CB6815E0CB681B1D12E0CB6808330FE0CF
:101F3000CB680C330CE08B682BB1012B4FF00803FE
:101F400003D0456104E0042302E0056100E00023C2
:101F5000FF2A01D8064601E000F104064FEA840595
:101F600001D9A5F12005D6F8008007FA05FC28EA7A
:101F70000C0803FA05F548EA0508C6F800804D6824
:101F8000ED0062D5374DAE6946F00106AE61AD6930
:101F900024F0030605F001050095334D06EB050C12
:101FA000DCF80850A607360F07FA06F825EA0805F8
:101FB000DFF8B880404503D14FF0000817E044E057
:101FC000DFF8AC80404502D14FF001080FE0DFF8A8
:101FD000A480404502D14FF0020808E0DFF8988065
:101FE000404502D14FF0030801E04FF0040808FA21
:101FF00006F848EA0508CCF808804D68D9F8006072
:10200000ED034D4601D5164300E096432E604D6822
:10201000DAF80060AD03554601D5164300E096435B
:102020002E604D68DBF80060ED025D4601D5164379
:1020300000E096432E604D68DEF80060AD02754604
:1020400001D5164300E096432E60641C0D682A46B5
:10205000E5407FF431AFBDE8F88F00000004014097
:102060000000111000100240000001400008014073
:10207000000C01400010014000140140806808403D
:1020800000D0012070470AB1016170470904FBE7E5
:1020900001488068704700004816002070B50400B1
:1020A00025D094F83D00002520B984F83C50204606
:1020B00000F0B8F8242084F83D002068016821F081
:1020C000010101602068016841F40041016020685D
:1020D000016821F40041016000F080FA4D4A616816
:1020E000914201D84C4900E04C49884201D201207C
:1020F00070BD4B492368B0FBF1F15E6826F03F06E6
:102100000E435E606368934206D94FF49673594359
:102110004FF47A73B1FBF3F12368491C1E6A26F071
:102120003F06314319626168914210D84900401E50
:10213000B0FBF1F2521CC2F30B02042A01D20420BC
:1021400022E0B0FBF1F0401CC0F30B001CE0A268E1
:10215000F2B301EBC10303EB0116431EB3FBF6F32D
:102160005B1C43F480431B0549D092B301EBC102D1
:1021700002EB0111401EB0FBF1F0401CC0F30B005C
:1021800040F4804040F400402168CA694CF6FF7377
:102190009A431043C861D4E90710014320680268DC
:1021A00022F0C00211430160D4E903010143206819
:1021B000826848F2FF339A4311438160D4E90501F4
:1021C00008432168CA6822F0FF021043C86001E09A
:1021D0000EE016E02068016841F00101016025640D
:1021E000202084F83D00256384F83E50002070BD17
:1021F00001EB4106431EB3FBF6F35B1CB3E7012082
:10220000C2E701EB4101401EB0FBF1F0401CC0F3FE
:102210000B00B7E7A086010080841E0000093D0086
:1022200040420F0010B586B000210091019102914B
:10223000039100681349884222D1134CA06940F0F1
:102240000800A061A069694600F0080004904FF4FE
:102250004070009012200190032003900B48FFF77C
:102260001DFE0B48416841F0E06141F00201416010
:10227000E06940F40010E061E06900F400100490AF
:1022800006B010BD0054004000100240000C014098
:102290000000014002488168027811448160704763
:1022A00048160020074810B5016841F01001016090
:1022B000032000F075F8002000F006F800F024F884
:1022C000002010BD0020024070B50D4D04464FF4B3
:1022D0007A712878B1FBF0F00A490968B1FBF0F097
:1022E00000F062FB48B9102C07D200222146501E94
:1022F00000F036F800206C6070BD012070BD000059
:1023000048160020541600200C4808B5816941F099
:1023100001018161816901F001010091C16941F010
:102320008051C161C06900F080500090044841684C
:1023300021F0E06141F00071416008BD00100240F1
:1023400000000140002809DB00F01F02012191403C
:102350004009800000F1E020C0F800117047000043
:10236000F0B40E4B1B680C46C3F30223C3F1070500
:10237000042D00D90425191D072901D2002300E0EE
:10238000DB1E012606FA05F1491E214099409E40B8
:10239000761E16403143F0BC01F0DDBD0CED00E0CF
:1023A000064900F0070208684FF6FF03184040EAAC
:1023B0000220034A10430860704700000CED00E063
:1023C0000000FA052DE9F84305460078354CC007B2
:1023D00054D0E0690026C00008D4E06940F0805085
:1023E000E061E069012600F0805000902E4801680D
:1023F000C90512D40168804641F480710160FFF77D
:1024000047FE074605E000BFFFF742FEC01B6428F9
:1024100023D8D8F80000C005F6D5206A10F4407023
:1024200021D0A98801F4407181421CD0206A1F4943
:10243000012220F440700A6000220A602062C00776
:1024400011D0FFF725FE074641F2883808E000BFAB
:10245000FFF71EFEC11B414502D90320BDE8F883EA
:10246000206A8007F4D5206A696820F44070084328
:1024700020621EB1E06920F08050E061287880077A
:1024800005D56068A96820F440400843606028785A
:10249000C00605D56068E96820F4800008436060E4
:1024A0000020DBE700100240007000404004424280
:1024B0002DE9F0470F46050061D0434E306800F02B
:1024C0000700B84209D2306820F007003843306076
:1024D000306800F00700B84251D128683B4C8107B2
:1024E00012D5400703D5606840F4E060606028784A
:1024F000000703D5606840F4605060606068A968B8
:1025000020F0F000084360602878C00728D0686891
:10251000012810D02168022810D0890700292EDA5E
:10252000616821F0030101436160FFF7B1FD80465E
:1025300041F288390DE021688903EFE78901EDE771
:10254000FFF7A6FDA0EB0801494502D90320BDE82D
:10255000F0876068696800F00C00B0EB810FEFD184
:10256000306800F00700B8420BD9306820F007004F
:1025700038433060306800F00700B84201D00120D5
:10258000E5E72878400705D56068E96820F4E06051
:10259000084360602878000706D56068296920F440
:1025A000605040EAC100606000F038F86168084A95
:1025B000C1F30311515CC840064908600648006831
:1025C000FFF782FE0020C2E7002002400010024018
:1025D0003A5D0008541600204C16002004480549B6
:1025E00000684968044AC1F30221515CC840704741
:1025F00054160020001002404A5D000804480549B6
:1026000000684968044AC1F3C221515CC840704760
:1026100054160020001002404A5D000812A185B047
:102620000FC98DE80F0014A0144A00680490516887
:10263000134801F00C03042B10D0082B0ED1C1F36A
:102640008343C9031DF803000AD5516804AAC1F3E6
:102650004041515C0A4A5043B0FBF1F005B070476D
:1026600008494843FAE70000020304050607080981
:102670000A0B0C0D0E0F101001020000001002409A
:1026800000127A0000093D002DE9F84F040070D0D7
:102690002078C04DC00749D06868C0F38100012888
:1026A00007D06868C0F38100022809D16868C003B8
:1026B00006D52868800339D560680028E7D035E062
:1026C0006068B0F5803F0BD010B1B0F5A02F11D0ED
:1026D000286820F480302860286820F4802002E0F8
:1026E000286840F480302860606890B1FFF7D0FC23
:1026F00006460AE0286840F480202860F0E700BF22
:10270000FFF7C6FC801B642873D828688003F7D5C0
:102710000CE0FFF7BDFC064605E000BFFFF7B8FC84
:10272000801B6428F0D828688003F7D420789A4E5C
:1027300080074FF001094FF0000839D5686810F0A4
:102740000C0F07D06868C0F38100022809D16868BF
:10275000C00306D42868800714D52069012808D151
:1027600010E02069B0B1C6F80090FFF791FC074671
:1027700005E00AE1FFF78CFCC01B0228C4D82868DA
:102780008007F7D52868616920F0F80040EAC100A9
:1027900028600DE0C6F80080FFF77AFC074604E0E9
:1027A000FFF776FCC01B022823D828688007F7D4DF
:1027B000207800072CD57948A169D9B1C0F80090DC
:1027C000FFF766FC074604E0FFF762FCC01B022827
:1027D0000FD8686A8007F7D571484FF4FA5100683E
:1027E000B0FBF1F0009000BF0098411E0091FAD2BA
:1027F0000EE080E0C0F80080FFF74AFC074604E0E6
:10280000FFF746FCC01B022875D8686A8007F7D41A
:102810002078400760D5E8690027C00008D4E8693F
:1028200040F08050E861E869012700F08050009096
:102830005C480168C90513D40168834641F480717E
:102840000160FFF725FC824606E000BFFFF720FC91
:10285000A0EB0A0064284ED8DBF80000C005F5D5CF
:10286000E06801280AD008B1052813D0286A20F0B2
:1028700001002862286A20F0040002E0286A40F083
:1028800001002862E06841F2883B98B1FFF700FC44
:1028900082460BE0286A40F004002862EEE700BFA1
:1028A000FFF7F6FBA0EB0A0159455AD8286A8007C2
:1028B000F6D50CE0FFF7ECFB824605E0FFF7E8FBFE
:1028C000A0EB0A0159454CD8286A8007F6D41FB1FD
:1028D000E86920F08050E861E06988B36968C1F375
:1028E0008101022944D00228C6F8608004D0FFF795
:1028F000CFFB044638E034E0FFF7CAFB074604E0AC
:10290000FFF7C6FBC01B02282BD828688001F7D42C
:10291000206AB0F5803F05D16868A16820F40030D6
:1029200008436860D4E908010843696821F4741118
:1029300008436860C6F86090FFF7AAFB044606E00B
:1029400025E000BFFFF7A4FB001B022809D8286878
:102950008001F7D51BE000BFFFF79AFB001B0228A0
:1029600002D90320BDE8F88F28688001F4D40EE076
:102970000128F7D06868226A00F48031914204D1BE
:10298000616A00F47010884201D00120EAE700205B
:10299000E8E700000010024000004242800442428A
:1029A000541600200070004010B5401EB0F1807F2A
:1029B00001D3012010BD4FF0E02460610F216017AA
:1029C00001F0C9FA0020A06107202061002010BD9D
:1029D0007047704710B590F83C20012A22D00122A0
:1029E00080F83C20CA688C6822F4407222434C680C
:1029F00022F4806222430C6822F4006222430C69B4
:102A000022F4805222434C6922F400522243C969C5
:102A1000002322F480420A4301684A6480F83C3073
:102A2000002010BD022010BD70B590F83C20012A96
:102A300026D0012480F83C40022280F83D20036823
:102A40005A689D6822F070060A6832435A600D4B3E
:102A500002689A4208D0B2F1804F05D00A4B9A42E0
:102A600002D00A4B9A4204D1496825F080031943E9
:102A7000916080F83D40002180F83C10084670BD10
:102A8000022070BD002C01400004004000080040FE
:102A900010B5040003D094F83D0010B107E0012008
:102AA00010BD002084F83C00204600F01FF80220F2
:102AB00084F83D00211D206801F08EF8012084F883
:102AC000460084F83E0084F83F0084F8400084F813
:102AD000410084F8420084F8430084F8440084F8FC
:102AE000450084F83D00002010BD000008B5114AE3
:102AF00001681148914208D1816941F40061816106
:102B0000806900F40060009008BDB1F1804FFBD1F6
:102B1000C16941F00101C161C069002200F00100FA
:102B2000009001211C20FFF71BFCBDE808401C2081
:102B3000FFF708BC002C01400010024090F83D1047
:102B4000012901D001207047022180F83D10016861
:102B5000CA6842F00102CA6000680B49884208D086
:102B6000B0F1804F05D00949884202D00849884217
:102B700004D1816801F00701062903D0016841F002
:102B80000101016000207047002C0140000400405A
:102B90000008004070B5044690F83C00012817D0AA
:102BA000012584F83C50022084F83D0020688268AA
:102BB00022F0770222F47F4282600868502830D0E9
:102BC0000DDC20284DD005DC98B310283BD148E01F
:102BD000022070BD302844D0402834D139E060282C
:102BE00028D0702806D0B0F5805F2CD0B0F5005FFB
:102BF00029D10AE0CB68D1E90121206801F02FF842
:102C00002068816841F0770109E0CB68D1E90121B2
:102C1000206801F024F82068816841F480418160D7
:102C200011E0CA684968206801F0CEF85021206898
:102C300007E016E0CA684968206801F0D6F860210C
:102C4000206801F016F884F83D50002084F83C001C
:102C500070BDCA684968206801F0B6F84021206854
:102C6000EFE7226801461046EBE72DE9F0410D46FB
:102C7000040003D094F83D0018B108E00120BDE83D
:102C8000F081002084F83C00204600F041F802204A
:102C900084F83D002068816844F207029143816016
:102CA000211D206800F098FF226890689169166ADB
:102CB0002B68AF69034340F20330814341EA0721A7
:102CC000A868EF6908434FF6FC418843E96840EA89
:102CD0000720014328692F6A000140EA07300843B2
:102CE00069686D6926F0220646EA05152943936056
:102CF0002268906154F8460B0162012004F81F0914
:102D0000E0752076E0762077A0750020B7E7000018
:102D100030B585B000240094019402940394204BB4
:102D20000268204801219A421ED1C26942F0020283
:102D3000C261C26902F002020492826942F0040296
:102D400082618069184D00F00400049040200291D7
:102D5000009069462846FFF7A1F88020CDE90004DD
:102D600069462846029417E0104B9A4216D1C26970
:102D700042F00402C261C26902F004020492826954
:102D800042F0080282618069029100F0080004901C
:102D9000C020009069460648FFF780F805B030BDB6
:102DA00000040040001002400008014000080040FC
:102DB000000C014070B590F83E60044690F83F501A
:102DC00090F8423090F84320022021B104290ED01F
:102DD000012E1BD114E0012E18D1012B16D184F83D
:102DE0003E0084F8420001220021206820E0012DED
:102DF0000CD1012A0AD184F83F0084F8430014E082
:102E0000012D03D1012B01D1012A01D0012070BD78
:102E100084F83E0084F83F0084F8420084F84300C0
:102E200001220021206800F00DFF0122042120680A
:102E300000F008FF2068016841F0010101600020F6
:102E400070BD704770B50446006801694FF0000519
:102E5000C943890715D4C168C943890711D4E91E3C
:102E6000016101202077206880698007204602D018
:102E7000FFF7E7FF04E000F0BFF8204600F04EF94E
:102E8000257720680169C943490717D4C168C94338
:102E9000490713D46FF004010161022020772068F4
:102EA000806910F4407F204602D0FFF7CAFF04E09B
:102EB00000F0A2F8204600F031F92577206801697A
:102EC000C943090716D4C168C943090712D46FF072
:102ED00008010161042020772068C069800720462E
:102EE00002D0FFF7AEFF04E000F086F8204600F0C5
:102EF00015F9257720680169C943C90617D4C16847
:102F0000C943C90613D46FF010010161082020776E
:102F10002068C06910F4407F204602D0FFF791FF7F
:102F200004E000F069F8204600F0F8F82577206802
:102F30000169C943C90708D1C168C943C90704D198
:102F4000891E0161204600F039F920680169C943F2
:102F5000090609D4C168C943090605D46FF0800188
:102F600001612046FFF734FD20680169C943490625
:102F700009D4C168C943490605D46FF04001016115
:102F8000204600F077FA20680169C94389060BD40E
:102F9000C168C943890607D46FF02001016120464A
:102FA000BDE87040FFF715BD70BD000000B585B0ED
:102FB0000021009101910291039100680B49884220
:102FC00012D10B48816941F0040181618069694631
:102FD00000F0040004904FF4407000900220019033
:102FE00003900448FEF75AFF05B000BD002C0140D5
:102FF0000010024000080140704770B5044690F888
:103000003C000D4601280AD0012084F83C0042B162
:10301000042A18D0082A2AD00C2A4DD139E00220DF
:1030200070BD206800F02EFE2068816941F0080123
:1030300081612068816921F00401816120688169D2
:103040002A69114311E0206800F044FE206881697C
:1030500041F4006181612068816921F480618161AE
:10306000206881692A6941EA0221816124E020689F
:1030700000F05CFE2068C16941F00801C161206870
:10308000C16921F00401C1612068C1692A69114345
:1030900011E0206800F076FE2068C16941F400610B
:1030A000C1612068C16921F48061C1612068C16982
:1030B0002A6941EA0221C161002084F83C0070BD08
:1030C00010B5040003D094F83D0010B107E00120D2
:1030D00010BD002084F83C00204600F01EF80220BD
:1030E00084F83D00211D206800F076FD012084F861
:1030F000460084F83E0084F83F0084F8400084F8DD
:10310000410084F8420084F8430084F8440084F8C5
:10311000450084F83D00002010BD70477047000056
:1031200010B50446022249B104290ED0082913D053
:1031300094F84100012816D0012010BD94F83E00FB
:103140000128F9D184F83E200FE094F83F000128CF
:10315000F2D184F83F2008E094F840000128EBD138
:1031600084F8402001E084F841200122206800F02A
:1031700069FD0F492068884203D1426C42F4004245
:1031800042642068884208D0B0F1804F05D00949D8
:10319000884202D00849884204D1816801F00701C1
:1031A000062903D0016841F001010160002010BD33
:1031B000002C014000040040000800402DE9FF5FA2
:1031C000A1480168486AA14C60829F48483802685B
:1031D000526AA28200254D620068456204F18006B1
:1031E0004FF001097068401C7060A4F80490E088FA
:1031F000401CE080E088022818D1A089012815D160
:103200002089401C2081B4F9080040F2AD214FF420
:10321000806B88420CDDA089012809D065620022FC
:1032200059468B48A562FEF72EFFE580BDE8FF9F5B
:10323000FEF7F8FADFF81082E06608F1C8084FF4EC
:10324000C877B8F802004FF4967AB8421CD9B8F89B
:103250000610B1F52F7F17D9B8F80400B84213D97A
:10326000608988B9B4F9080032280DDDB4F9080086
:10327000504509DA6562002259467548A562FEF795
:1032800002FF6089401C6081B8F802004FF4FA71B7
:10329000884216D2B8F80600B8420ED2B8F8040038
:1032A00088420AD2B4F9080040F22621884204DD9F
:1032B000002259466648FEF7E6FEB8F80200B8421A
:1032C0000ED9B8F80410B1F5167F09D9B8F8060080
:1032D000B84205D9B4F90800504501DDC6E90095AA
:1032E000A16E606F02F03EFB02F07EF980468946D7
:1032F000206F02F079F901F067F907468A46606E9F
:1033000002F072F93A46534601F07AFF42464B46C4
:1033100001F014FD01F0E0FCB0632078012802D038
:10332000022803D008E04948E03000E04948B4F9F9
:10333000081050F821003064206F02F055F901F0B8
:1033400065FC07468846E06F02F04EF93A46434670
:1033500001F056FF07468846A16F606E02F002FB3F
:10336000E16E039102F0FEFA3B4902F0D1F9316CB3
:10337000029102F065F902F037F93A46434601F04E
:10338000DDFC01F0A9FC0146F063E06D02F0EAFA11
:103390004FF0FF38414602F092FC0190B16B009172
:1033A00002F04EF906464FF07E50216E02F0B0F961
:1033B0008346314602F0D6FA02F016F9DFF89C9007
:1033C000DFF89CA04A46534601F01AFF01F084FC46
:1033D0006062E06A02F008F906460F46DDE9001077
:1033E00002F08CFB0146584602F0BCFA02F0FCF8F1
:1033F0004A46534601F004FF32463B4601F09EFC2C
:1034000001F06AFCA062029802F0EEF806460F4650
:10341000039802F0E9F80B46CDE90267B4F9081009
:103420000246094800910FA18C30FCF775FF064851
:103430008C30FDF748F8044982B28C314346A1F143
:10344000440000F081F8F0E6B417002000000020EE
:1034500000080140940B002000007A4462DDA4794A
:103460003A192340252E31662C25642C252E3266F0
:103470000A000000704770B5040004D094F83D00C5
:10348000002510B106E0012070BD84F83C502046B4
:1034900000F022F8242084F83D002068C16821F45F
:1034A0000051C160204600F0B3FC2068016921F49E
:1034B000904101612068416921F02A014161206841
:1034C000C16841F40051C1602564202084F83D00AA
:1034D00084F83E00002070BD30B585B00024009413
:1034E00001940294039400681449884224D114483A
:1034F000C16941F48021C161C16901F48021049155
:10350000816941F00801816180690E4D00F0080079
:1035100004904FF4806000900220019003200390FB
:1035200069462846FEF7BAFCE814CDE9000469466E
:1035300028460294FEF7B2FC05B030BD00480040BA
:1035400000100240000C01402DE9F843044690F8B9
:103550003D001F4616460D4620284CD1C5B1BEB1D0
:1035600094F83C00012846D0012084F83C004FF03C
:103570000008C4F84080212084F83D00FEF788FD53
:10358000A6848146E684A068B0F5805F03D004E09D
:103590000120BDE8F883206928B12E465FF00005C0
:1035A00084F83C800EE00026FAE78021204600F0F7
:1035B0008BFCA0B9AEB116F8010B21684860E08C15
:1035C000401EE084E08C4B464FF00002009700283C
:1035D000EBD14FF04001204600F076FC30B10320E3
:1035E000D7E735F8020BC0F30800E6E7202084F89F
:1035F0003D000020CDE70220CBE7FEE741607047A9
:103600000122D1030148FEF73EBD00000010014039
:103610002DE9F84FDFF8D0800122960300243146CF
:1036200045464046FEF72FFD4FF40049002249462B
:103630002846FEF728FD31462846FEF71FFD0128E3
:103640000CD0B246002546462F46C84601224146C8
:103650003046FEF718FD8DF8007008E00020BDE848
:10366000F88F00BF9DF80000401C8DF800009DF809
:103670000000FF28F6D1002241463046FEF703FD48
:103680008DF8007005E000BF9DF80000401C8DF82B
:1036900000009DF80000FF28F6D164005146304636
:1036A000FEF7ECFC00B1641C6D1CEDB2182DCDD3FF
:1036B0000122454641463046FEF7E5FC8DF8007094
:1036C00005E000BF9DF80000401C8DF800009DF84B
:1036D0000000FF28F6D1002229463046FEF7D3FC31
:1036E00084F40000BBE70000001001402DE9F04722
:1036F00000250F4681462E462C46A8460EE000BF08
:10370000FFF786FF18B12D1846EB080601E0641E8E
:1037100024B20120FEF7B0FB641C24B2BC42EFDBF4
:103720003A46002328463146FCF77EFD02F006F9B2
:10373000C9F80000BDE8F0872DE9F04700250F46E5
:1037400080462E462C46A9460EE000BFFFF760FFDC
:1037500018B12D1846EB090601E0641E24B20120C1
:10376000FEF78AFB641C24B2BC42EFDB3A4600231E
:1037700028463146FCF758FD02F0E0F8D8F8001072
:1037800002F0C6F9D8F80410BDE8F04701F0C0BF58
:10379000FEB5002425480094019423490294016059
:1037A00089158160012505730475052606614FF4AE
:1037B00060214460C161FEF7F3F808B172B6FEE71C
:1037C00007200094CDE9015069461848FEF766F8D5
:1037D00008B172B6FEE70224CDE9005469461348E9
:1037E000FEF75CF808B172B6FEE700940324694660
:1037F0000E480194FEF752F808B172B6FEE7009445
:103800000424694609480194FEF748F808B172B6E5
:10381000FEE7CDE9004669460448FEF73FF8002878
:1038200001D072B6FEE7FEBD00240140581600200C
:103830002DE9F04F85B0002439480094019402949A
:103840000394816941F010018161816901F01001E7
:103850000491816941F020018161816901F02001B9
:103860000491816941F004018161816901F00401E1
:103870000491816941F0080181618069DFF8A490B9
:1038800000F008004FF400460490002231464846FC
:10389000FEF7F9FBDFF890A04FF47047002239469D
:1038A0005046FEF7F0FBDFF884B04FF48068012249
:1038B00041465846FEF7E7FBB01001258DE8310080
:1038C00069464846FEF7EAFAA803CDE900046946CE
:1038D00048460294FEF7E2FACDE900650226CDE9FA
:1038E000024669464846FEF7D9FA009669465046B0
:1038F000CDE90145FEF7D2FA00970396CDE90154D0
:1039000069465046FEF7CAFACDF800800396CDE925
:10391000015469465846FEF7C1FA05B0BDE8F08F7C
:103920000010024000100140000C0140000801405E
:1039300010B596B000240F9410941194129413941F
:103940001C2168461494FCF7DDFD202107A8FCF734
:10395000D9FD2C482A4901604721C0E9011440F2F1
:10396000E731C0E9031444618461FFF791F808B1BD
:1039700072B6FEE74FF480500F900FA92148FFF771
:1039800009F908B172B6FEE71E48FFF799FB08B1C6
:1039900072B6FEE7139413A91A481494FFF744F87B
:1039A00008B172B6FEE76020CDE9000402940394EA
:1039B000049405940022694612480694FFF71DFB03
:1039C00008B172B6FEE7042269460E48FFF715FB00
:1039D00008B172B6FEE70794089409944FF40050BA
:1039E0000A94CDE90B4007A906480E94FEF7F2FFB2
:1039F00008B172B6FEE70348FFF7D8FA16B010BD5B
:103A0000002C0140DC16002010B586B000241648BA
:103A1000009401940294039404944FF0804105941F
:103A200001604721C0E9011446F2A711C0E903145F
:103A30008461FFF72DF808B172B6FEE74FF48050AD
:103A4000009069460848FFF7A5F808B172B6FEE78E
:103A5000049404A904480594FEF7E6FF002801D069
:103A600072B6FEE706B010BD2417002010B58CB06A
:103A700024216846FCF746FD0024164809941449A1
:103A80000A94C0E900144FF6FF71C0E902410461D5
:103A900084610320009001AA0220012182E8130022
:103AA000CDE90440CDE9061469460A480894FFF7B9
:103AB000DCF808B172B6FEE7099409A905480A9432
:103AC000FEF7B2FF002801D072B6FEE70CB010BDC1
:103AD000000400406C17002010B58CB0242168460B
:103AE000FCF710FD00241648099414490A94C0E913
:103AF00000144FF6FF71C0E90241046184610320A4
:103B0000009001AA0220012182E81300CDE90440BF
:103B1000CDE9061469460A480894FFF7A6F808B1EB
:103B200072B6FEE7099409A905480A94FEF77CFFDE
:103B3000002801D072B6FEE70CB010BD00080040AE
:103B4000B4170020FEE7FEE770477047FEF7A2BB00
:103B500030B593B028216846FCF7D4FC14210AA89C
:103B6000FCF7D0FC002501200F951095119501045C
:103B700012958DE8230004904FF4E010CDE9081071
:103B8000022407946846FEF77FFD08B172B6FEE78F
:103B90000AA90F2081E831004FF48060CDE90D05BE
:103BA00002210AA8FEF784FC08B172B6FEE74FF4C2
:103BB000004011900F940FA8FEF704FC002801D0DC
:103BC00072B6FEE713B030BD704700000148FFF742
:103BD00039B9000024170020F0B50268164B174CC5
:103BE000174D4FF08047984205D0B84203D0A0420D
:103BF00001D0A84203D122F070064A6832439842AD
:103C000005D0B84203D0A04201D0A84203D122F48B
:103C10004074CA6822434C6922F080022243026049
:103C20008A68C2620A688262984201D109690163A6
:103C300001214161F0BD0000002C01400004004062
:103C40000008004010B501F01F030121046A9940EB
:103C50008C430462016A9A401143016210BD10B5A1
:103C6000846842EA032224F47F440A4322438260A8
:103C700010BD826822F070020A4342F007018160A1
:103C80007047000030B5026A22F001020262026A47
:103C90004368846924F073050C682C4322F0020504
:103CA0008A682A430A4DA8420BD122F00805CA6847
:103CB00023F440732A434D6922F004021D438B69AB
:103CC0002B434360846149684163026230BD000058
:103CD000002C014030B5026A22F010020262026A32
:103CE000436884690D6824F4E64444EA05248D6839
:103CF00022F0200242EA05120B4DA8420ED1CD68F7
:103D000022F0800242EA05124D6923F4406343EA3F
:103D100085038D6922F0400243EA85034360846194
:103D200049688163026230BD002C014030B5026AEF
:103D300022F480720262036A4268C46923F4007349
:103D400024F073050C682C438D6843EA05230C4D61
:103D5000A8420ED1CD6823F4006343EA05234D69E0
:103D600022F4405242EA05128D6923F4806342EA4C
:103D700005124260C4614968C163036230BD00003E
:103D8000002C014030B5026A22F480520262046ABB
:103D90004268C3690D6823F4E64343EA05238D684E
:103DA00024F4005444EA0534064DA84204D14D6978
:103DB00022F4804242EA85124260C361496801648C
:103DC000046230BD002C014010B5036A046A24F07F
:103DD00001040462846924F0F00444EA021423F02C
:103DE0000A020A438461026210BD10B5036A23F01F
:103DF000100303628369046A23F4704343EA0232C6
:103E000024F0A00343EA01118261016210BD0000A9
:103E100070B5044600680169E26821F4405111431D
:103E200001612169A0680843616908432168CA6883
:103E300041F20C639A430243CA6020684169A26957
:103E400021F44071114341611E492068884202D12A
:103E5000FEF7D4FB01E0FEF7C1FB00EBC00101EB74
:103E60000012606864218000B2FBF0F3B3FBF1F351
:103E70006FF018067343B2FBF0F5B2FBF0F605EBFA
:103E80008305322303EB0515B5FBF1F5B6FBF1F61F
:103E900005F0F00505EB0615B2FBF0F6B2FBF0F00D
:103EA000B0FBF1F06FF01802504306EB800003EB1B
:103EB0000010B0FBF1F0216800F00F00284488608A
:103EC00070BD0000003801402DE9F04198461746CA
:103ED0000E460446069D1DE0681C1BD02DB1FEF762
:103EE000D7F8A0EB0800A84214D92068C16821F4D3
:103EF000D071C1602068416921F001014161202039
:103F000084F83D0084F83E00002084F83C00032043
:103F1000BDE8F0812068006836EA000004D0002087
:103F2000B842D9D00020F3E70120F9E7FEE74900C5
:103F300050EAC12018BF04204A0D18BF40F001000C
:103F400040F2FF72B2EB515F08BF40F0020001285F
:103F500008BF052070470907090E002804DB00F19F
:103F6000E02080F80014704700F00F0000F1E0201E
:103F700080F8141D704700002DE9F74F144694B0E7
:103F80000021C4E902111599079121F00045C949A2
:103F90008D4206DC1599C4E9000117B00020BDE888
:103FA000F08FC549DFF814A3A9423CDD0799C44E40
:103FB0000029C44FC44A1599534619DD01F02AFA65
:103FC000554506D0C14AC24B01F024FAC4E90001AC
:103FD0000AE04FF0D352BE4B01F01CFA32463B468A
:103FE00001F018FAC4E9000117B00120BDE8F08F14
:103FF00000F0A4FE554506D0B44AB54B00F09EFE35
:10400000C4E900010AE04FF0D352B14B00F096FE34
:1040100032463B4600F092FEC4E9000117B04FF073
:10402000FF30BDE8F08FAB49A942159978DB21F04C
:10403000004183468846A84AA84B01F0E1F80022D7
:10404000A74B00F07BFE01F081F8099001F0ADF87C
:1040500006460F469C4A534601F0D2F843465A465C
:1040600001F0CCF980468A46984A994B3046394649
:1040700001F0C6F82A0D01250B924246534601F085
:10408000BDF9032DC4E9000139D00B98C1F30A51E1
:10409000401A05EB45111139814230DA9148C34687
:1040A000784400EB0510CDF80CA00C90D0E900236B
:1040B0003046394601F0A4F802460B4604910690BA
:1040C0005846039901F0A6F980468A4602460B46F7
:1040D0005846039901F09EF9049B069A01F09AF95B
:1040E00083460C9803913946D0E90223304601F00B
:1040F00087F85A46039B01F08DF96D1CBDE70798C0
:104100000028A2BF099817B0BDE8F08F616881F060
:1041100000416160099817B04042BDE8F08FFFE7A9
:1041200084461598C1F31301C0F30A50A0F2F5308C
:104130004FEA601800F01F06C6F12000139000201F
:104140000690079041F4801E05206D4676B1664AC0
:1041500008EB00017A4452F8213002EB8101B340B0
:104160004A68139922FA01F1194305E05F4908EB07
:104170000002794451F82210A1FB0E27A1FB0C1379
:104180001A449A4234BF0123002303EB070A05EBCC
:104190008003D3E901B70F448F4234BF01210021CE
:1041A00093448B4411B1934502D903E0934501D266
:1041B000012100E00021C3E901B7514445F8201076
:1041C000011EA0F10100C1DC0298059F00F1005022
:1041D000800F12900298DDE90356800000F0E5FFA1
:1041E000834628460D9100F0F7FF6FF01D0201F0A5
:1041F00038FDCDE90E01304600F0EEFF6FF03D02D4
:1042000001F02FFD80468A46384600F0E5FF6FF04A
:104210005D0201F026FD074642465346119100F02B
:104220008DFDDDE90E2300F089FD5A460D9B00F05F
:1042300085FD00250E465A4628460D9B01F0EAF8FA
:10424000DDE90E2301F0E6F84246534601F0E2F8BC
:104250003A46119B01F0D2F8DFF898A0244A534661
:1042600000F0CEFF07468846234A244B31462846B5
:1042700000F0C6FF3A46434600F060FD0746884618
:104280004FF0A84253463146284600F0B9FF3A465F
:10429000434600F053FD159A12F0004F04D0129AD5
:1042A00081F0004152421292C4E90001129817B005
:1042B000BDE8F08FFB21E93F7CD90240FB21F93FAB
:1042C0007370032E8A19A33B000040543163621AB5
:1042D00061B4D03DFB21394183C8C96D305FE43FF3
:1042E0000000E03FE41C0000601C0000421C0000D5
:1042F000182D4454FB21F93D3326A611460B113CE1
:104300002DE9FF4D21F0004807460C46B8F1795FD2
:1043100008DA00F01BFF002801BF0020324904B07A
:10432000BDE8F08D3A4623461046194600F068FF76
:10433000054602462D480E460B460621784400F0FD
:104340005DF82A46334600F05BFFDDE90223824632
:104350008B463846214600F053FF04460F4652462E
:104360005B462846314600F04BFF22463B4601F0B3
:1043700051F807468A464FF0FF322846314601F091
:1043800070FC1B4A90450ADA3A46534601F042F85F
:1043900004B00022BDE8F04D134B01F02FB8154AD0
:1043A0004245A8BFA8F500154FF00004B8BF124D54
:1043B00022462B4601F02EF80646884622462B461A
:1043C0000020094901F026F804460D463A465346B6
:1043D0003046414601F01EF804B022462B46BDE8A7
:1043E000F04D01F00BB800000000F03F181A00007B
:1043F0003333D33F0000E93F0000D23F2DE9F041C5
:104400004F1E00EBC7010446D1E9000115461E46C8
:1044100037F006020DD02A46334600F0F1FE7F1E2B
:1044200004EBC703D3E9002300F088FC37F0060251
:10443000F1D1022F25D0042F13D0062F18BFBDE8CD
:10444000F0812A46334600F0DBFED4E90A2300F06F
:1044500075FC2A46334600F0D3FED4E9082300F069
:104460006DFC2A46334600F0CBFED4E9062300F06B
:1044700065FC2A46334600F0C3FED4E9042300F06D
:104480005DFC2A46334600F0BBFED4E9022300F06F
:1044900055FC2A46334600F0B3FED4E90023BDE8BC
:1044A000F04100F04BBC00002DE9FF4D054621F026
:1044B000004084B00C46B0F1795F0BDA2846FFF774
:1044C00036FD042808BF00F06FF8284608B02146E2
:1044D000BDE8F08D2A460B46104600F091FE0646D8
:1044E0000F462A46234600F08BFE804626488A4621
:1044F00032463B4605217844FFF780FF83461098FB
:10450000029160B3214A224B4046514600F078FEAA
:10451000CDE900015A4640465146029B00F070FE2C
:1045200082468846DDE906014FF0FF3201F099FB33
:104530005246434600F06EFF32463B4600F060FEB6
:10454000DDE9062300F066FFDDE9002300F062FFED
:1045500008B02A462346BDE8F04D00F04FBF0B4699
:104560005A463046394600F04BFE084A084B00F0E8
:10457000E5FB4246534600F043FE08B02A46234678
:10458000BDE8F04D00F0DABB56190000495555550D
:104590005555C5BF012201F064BB002213461046E9
:1045A000114600F07BBC0000024A0020110701F018
:1045B00058BB000001FDFFFF30380A2801D201205E
:1045C000704700207047000000B5244B21F00042E6
:1045D00087B09A42DCBF0022134629DD204B9A4265
:1045E00008D140B94FF00100FBF7BBFFFFF7D5FF43
:1045F00007B000BD03DBFFF7CDFF07B000BD02AA87
:10460000FFF7BAFC10F0030104BF0DF1080C9CE8A1
:104610000F000DD0012001290ED0022914D00DF178
:10462000080C00909CE80F00FFF73EFF07B000BDAC
:10463000FFF766FE07B000BD0DF1080C00909CE886
:104640000F00FFF731FF05E00DF1080C9CE80F00AB
:10465000FFF756FE07B081F0004100BDFB21E93FA6
:104660000000F07F0EB5FDF71DFEFFF771FAFFF7B2
:10467000DFF8FF48FD49002401604FF41651C0E9FE
:1046800001140C21C460C0E904418461C461FEF7D7
:10469000F2FE08B172B6FEE7FFF74AF9FFF7B4F988
:1046A000FFF7E4F9FFF718FAF248416941F0010118
:1046B00041614069002200F00100009011460B208A
:1046C000FDF74EFE0B20FDF73DFEFFF761F8EB48CE
:1046D000E9494FF480420160E9494160002181606D
:1046E000C0E9031241618161C1610162FDF7D6FC3D
:1046F00008B172B6FEE7E14800215430FEF710FD24
:10470000DE4804215430FEF70BFDD94804219038CF
:10471000FEF750FBD64804214838FEF74BFBD4493E
:1047200005227631A1F21A20FDF710FAFCF7D2FF2C
:10473000FCF78AFFFEF764FFD249D348FEF75EFF1D
:104740000521D148FEF7D2FFCF4C443C0221CF488F
:10475000FDF794FCF8B9C820FDF78EFBCA4D4FF069
:104760007C51C43DE86A00F06BFFE86200F03CFF5A
:104770000246BF480B46C6A14430FBF7CDFDBC48FE
:104780004430FBF7A0FEBA4982B24FF0FF33443108
:10479000B748FEF7D9FE4FF40051C148FDF76EFC53
:1047A00098B9C820FDF768FBB7480122C438428099
:1047B0000021C1800181418182819102B948FDF7C8
:1047C00062FCAE489C30FEF7B9F9AF4DC43D688934
:1047D000012864D16889401C68810027AF8141F2BB
:1047E00088363046FDF748FBFDF752FCDFF8B8820B
:1047F000DFF8B892DFF8B8A2DFF8B8B2A8613CE001
:104800000121A148FEF798FF00EB080228634A4502
:1048100016D200F0E9FE024695480B46A6A14430A8
:10482000FBF77AFD92484430FBF74DFE904982B287
:104830004FF0FF3344318E48FEF786FE01201AE028
:1048400000EB0A01594518D2286B00F0CDFE024654
:1048500087480B4698A14430FBF75EFD84484430FE
:10486000FBF731FE824982B24FF0FF33443180487A
:10487000FEF76AFE0220287005E0FDF709FCA96931
:10488000401AB042BCD340F6B830FDF7F5FA012229
:1048900091028448FDF7F7FB0120A881EF8028787A
:1048A000012802D002280ED019E02068012816D174
:1048B0000020A8818449696284490CE001212060BC
:1048C000A981E8800BE02068012808D10020A88198
:1048D0007F4969627F49A96261681E29EED06888B4
:1048E00001287FF433AFA8880128FAD1FDF7D0FB67
:1048F000654DA060C43DB5F9120001F007F8764E91
:10490000314601F02FF8754900F002FF6FF0010801
:10491000414601F0D4F900F067FEDFF8C4A14FF082
:1049200066394A46534600F0B9FAC9F100026D4BA8
:1049300000F0B4FA00F0D0F90746E861B5F91400C8
:1049400000F0E4FF314601F00DF8674900F0E0FEA9
:10495000414601F0B4F900F047FE4A46534600F0E4
:104960009DFAC9F100025F4B00F098FA00F0B4F92B
:10497000064628623946686A01F0CAF880466061D6
:104980003146A86A01F0C4F8E061E96C81468B46C3
:10499000404600F055FE00F027FE544A514B00F00F
:1049A0002FFC4FF0FF3A524601F05BF90646286DA6
:1049B0000F46019000F018FE32463B4600F0BEF96B
:1049C00000F08AF9A0610746696D4846029100F03F
:1049D00037FE00F009FE454A424B00F011FC5246FA
:1049E00001F03FF90646A86D8A46009000F0FCFDF4
:1049F0003246534600F0A2F900F06EF9824620627A
:104A00005946404601F084F8696C00F0ABFF00F0B5
:104A1000EBFD364A334B00F041FA06468B463946E9
:104A2000E86B00F09FFF07464146686B00F09AFF75
:104A3000394600F005FE00F0D7FD32465B4600F037
:104A40007DF900F049F9E06006464846029901F018
:104A50005FF8A96C00F086FF00F0C6FD234A214BE9
:104A600000F01CFA0F468046514641E000480040E5
:104A7000FC1700200010024000540040881600205F
:104A8000801A0600B226D443C4000020000C014066
:104A90006F66667365743A20252E31660A00000041
:104AA0000010014000080140FFFF85BBFFFF3400FC
:104AB000FFFF05BBFFFF1B007765696768743A203D
:104AC000252E32660A0000000000684200003442D1
:104AD0000000204200008842000070420000304187
:104AE000666647409999993F000030C19A99999913
:104AF000286C00F037FF82464946A86B00F032FF71
:104B0000514600F09DFD00F06FFD42463B4600F02F
:104B100015F900F0E1F8014620613648864201DDD2
:104B2000E06003E0344A964202D9E260019AA26151
:104B3000814202DC3048814202D920610098206223
:104B40002E4EE068B0420AD32D4D012211032846B3
:104B5000FDF799FA002269142846FDF794FAE068F7
:104B60004FF40007B8420ADB254D0022F91228460F
:104B7000FDF789FA012251032846FDF784FA2069DE
:104B8000B0420BD31E4D012291032846FDF77BFA5C
:104B900000224FF400412846FDF775FA2069B8421B
:104BA0000BDB174D00224FF480412846FDF76BFACE
:104BB0000122D1032846FDF766FAE06820F00040A4
:104BC00000F068FE0F4D00B229684863206920F0AC
:104BD000004000F05FFE01B2286881630A48A169C5
:104BE00001656169C164216A8165E16941650021EE
:104BF0008180ABE500007A4400007AC40000808028
:104C0000000C0140DC1600200000002000B5254B00
:104C100021F0004287B09A4203DC00221346009242
:104C20002BE0214B9A4208D140B94FF00100FBF72D
:104C300098FCFFF7B2FC07B000BD03DBFFF7AAFC4E
:104C400007B000BD02AAFFF797F910F003014FF07B
:104C500001000DD0012914D002291AD00DF1080C41
:104C60009CE80F00FFF74CFB07B081F0004100BD4E
:104C70000DF1080C00909CE80F00FFF715FC07B041
:104C800000BD0DF1080C9CE80F00FFF739FB07B0E1
:104C900000BD0DF1080C00909CE80F00FFF704FC2C
:104CA000E2E70000FB21E93F0000F07F10B500299A
:104CB0000AD00878002807D005487844FCF710F897
:104CC000002801D0002010BD0248784410BD00002B
:104CD000721200006A12000021F00042A2F160523C
:104CE000B2F5801F01F0004328BFD2F17F6C0BD9D1
:104CF0005FEA001C43EAC20242EB507018BF7047E3
:104D000028BF20F001007047B2F5801FBCBF1846D5
:104D100070474FEA410C1CF5001F02D2084600F014
:104D2000E8BE70B500F016FB00000089FFF7F6BF83
:104D30004FF00040A0F580007047000010B591EAE8
:104D4000030F48BF83F0004300F16C83841A71EBBA
:104D5000030C05D2121943EB0C03001B61EB0C0191
:104D6000DFF824E14FEA1154A4EB135C1EEA430F71
:104D700018BF9EEA445F73D023EA0E03DCF1200ED5
:104D800021EA045143F4801332D322FA0CFE10EBD3
:104D90000E0023FA0CFE41EB0E01CCF1200E03FABB
:104DA0000EFE10EB0E0051F10001B1F5801FCCF1A9
:104DB000200E32D201EB045112FA0EF2BDE810407F
:104DC00058BF7047401C38BF5FEA420218BF7047A7
:104DD000002814BF20F0010041F100014FEA410317
:104DE00013F5001F38BF7047A1F1C04100F000BBB0
:104DF000012A43EB0302ACF1200CDCF11F0E32BFA1
:104E00004FF0000E23FA0CF310EB030041EB0451BA
:104E1000B4EB115FD0D0A1EB045101F5801149082A
:104E20005FEA300001EB04510ED350F1000038BFAF
:104E300012FA0EFE08D1BDE81040C9E7401C38BF89
:104E40005FEA4202CAD1C3E7BDE810404FEA41031E
:104E500013F5001F38BF7047A1F1C04100F0C8BA78
:104E60009EEA445F08D011EA5E0FBDE8104004BF1F
:104E700001F0004100207047BDE8104070B500F01F
:104E800069FA00BF64FBBE3E0000E0FF02494FF03C
:104E9000000000F0B4BE00BF0000F87F2DE9C04163
:104EA00030B4DFF8A0C23CEA111418BF3CEA131476
:104EB00000F0EC8081EA03051CEA111444EAD57481
:104EC00018BF1CEA131500F0C780A4EB05044FF0CF
:104ED000004545EAC12145EAC32341EA505143EA6E
:104EE000525304F17F74994204F500344FEAC02014
:104EF0004FEAC22208BF904200F09C804FEA13653F
:104F00000FF24016765D4FEA134506FB05F7C7F131
:104F1000807706FB07F74FEAD737A7FB036876428F
:104F2000C8F58038A7FB06CE38BFA8F1010807FBFB
:104F300008E64FF0000EA6FB028CE6FB03CEDCF188
:104F4000000CCEF1004E38BFAEF1010EA6FB0C589E
:104F50004FF000074FF00005E6FB0E87A1FB08C6E7
:104F6000A0FB07CE16EB0E0645F10005E1FB076539
:104F700015F1E04E7EBFA4F580345FEA46066D4130
:104F800016F1800745F100054FEA17274FEA06663C
:104F900047EA0567A6F1DE46B6F1805F4FEA1525C0
:104FA0001FD9384624F0010C05EBC471BCF1FE6F2B
:104FB00001EB0C1102D8F0BCBDE8008124425CBFBB
:104FC00001F5801E9EEAC47F02D4F0BCBDE80081DA
:104FD000244238D4F0BCA1F1C041BDE8004100F04A
:104FE00007BA4FEAD22242EA43524FEAD323A7FB41
:104FF00002864FEAD02040EA415007FB03661EEAD2
:105000000E0F4FEAD12105FB026658BFA6EB0056F2
:10501000B6EB00564FEA520E4EEAC37E18EB0E0E68
:1050200056EB530EBDD518EB02085E417F1C55F1BF
:105030000005B6E74FF480154FF000074FF000066B
:105040004FF00008ADE7F0BC4FF0000001F1C041A7
:1050500001F00041BDE8008111EA0C1F0CEA1315B4
:1050600000D00CE013EA0C1F00F025804FF0000088
:10507000F0BC81EA030101F00041BDE80081F0BC11
:10508000BDE8004181EA030100F0B2B9F0BCBDE81F
:10509000004170B500F05EF9097EFC3E00F007B8F3
:1050A00081EA03014FF0000001F00041704781EAFE
:1050B000030100F09DB9F0BCBDE800414FF00000D5
:1050C00021497047FFFDFBF9F7F5F4F2F0EEEDEB47
:1050D000E9E8E6E4E3E1E0DEDDDBDAD8D7D5D4D3F6
:1050E000D1D0CFCDCCCBCAC8C7C6C5C4C2C1C0BF42
:1050F000BEBDBCBBBAB9B8B7B6B5B4B3B2B1B0AF48
:10510000AEADACABAAA9A8A8A7A6A5A4A3A3A2A12B
:10511000A09F9F9E9D9C9C9B9A99999897979695E6
:1051200095949393929191908F8F8E8E8D8C8C8B82
:105130008B8A89898888878786858584848383820A
:10514000828181800000FF070000F87F4FEA410361
:105150004FEA5353A3F58063D3F11E03C8BFD3F1C5
:10516000210C0CDD4FF0004242EAC12242EA5052CB
:1051700032FA03FC8CEAE17CACEBE1707047102B57
:10518000C4BF0020704703F5787CBCF1FF3F04D01A
:105190006FF0004282EA2100704770B500F0DAF843
:1051A0004992248000207047F2E710F0004248BF87
:1051B0004042B0FA80F310FA03F10AD0C3F11D03A4
:1051C00003F580634FEA415002EB035202EBD12119
:1051D00070474FF000007047B0FA80F310FA03F107
:1051E0000AD0C3F11D0303F580634FEA41504FEA33
:1051F000035202EBD12170474FF0000070470000CE
:10520000DFF848C170B51CEA111E1EBF1CEA131559
:105210009EEA0C0F95EA0C0F00F06F8081EA030400
:1052200023EA4C134EEAD47E21EA4C1141F480115A
:1052300043F48013AE44A1FB024CA0FB0365AEF126
:105240007F7E361955EB0C05A1FB034C4CF1000396
:10525000A0FB021C16EB0C06654153F1000309424A
:1052600018BF46F0010613F4007F0BD14FEA03315B
:105270004FEA0530340341EA155140EA16506FF009
:1052800003020AE04FEAC3214FEAC520F40241EAD3
:10529000555140EA56506FF0020202EB2E4201EBEC
:1052A000025585EACE710AD05FEA440C18BF24F09B
:1052B000004450F1000041F1000120EAD47040F2B6
:1052C000FE7C624500D270BDA84214BF4FF08044FE
:1052D0004FF04044002E08BF0024BEF1806FA8BFED
:1052E000A1F1C041BDE8704080F282804FF0000023
:1052F00001F1C04101F0004170479EEA0C0F0CEA39
:10530000131518BF95EA0C0F06D04FF0000081EA84
:10531000030E0EF0004170BD00F01CF88900013E44
:1053200000F007B800F009B84FEA430C5FEA5C5C94
:1053300008D081EA030100F05BB84FEA410C5FEA54
:105340005C5CF6D14FF00000014970470000FF0798
:105350000000F87F0EF1020E2EF0030E5EF8046BD3
:10536000364205D4012A43EB030515F5001F12D878
:10537000012841EB010C1CF5001F0CD80ED14FEA9F
:10538000D17C15F5001F0CEB4C0C0CF1020C08BF86
:105390004CEBD37C04E04FF0080C01E04FEAD37CE7
:1053A0000CEB4C0526FA05F606F00706B6F1040CE0
:1053B00006D20EEB860CBDE870404CF0010C604745
:1053C000DFE80CF0090B02024FF000414FF0000043
:1053D000A1F5002170BD19461046012851EB0104CA
:1053E00018BFD4F5001484BF002001F0004170BD47
:1053F0000808A0F500114FEA3101704791EA030F48
:1054000010B581F000413FF5A1AC83F0004300F0FE
:1054100009B8000010B591EA030F48BF83F00043BC
:105420003FF594AC841A71EB030C07D212198CF07F
:10543000004C43EB0C03001B61EB0C01DFF8A4E113
:105440004FEA1154A4EB135C1EEA430F18BF9EEA07
:10545000445F00F0B08023EA6E03524221EA045117
:10546000C3EB6E0338BF5B1EDCF1200E25D322FA9E
:105470000CFE10EB0E0043FA0CFE41EB0E01CCF1DA
:10548000200E03FA0EFE10EB0E0051F10001CCF1DC
:10549000200E29D412FA0EF201EB0451BDE810409F
:1054A00058BF7047401C1CBFB2F1004F7047002826
:1054B0000CBF491C20F00100704712EB020E43EBB9
:1054C000030218BF4FF0010E4EEA4202ACF1200C6D
:1054D000DCF11E0E54D943FA0CFE10EB0E0051F114
:1054E000FF31CCF11E0ED5D50EF1010E12FA0EFED3
:1054F000404141EB010101EB445C5FEA5C5C10D987
:1055000010EBDE7001EB045138BFBEF1004FBDE877
:10551000104018BF704700280CBF491C20F0010044
:10552000704730D24FEAD42C11F5001124F40064F6
:105530001BD0B1FA81F20B3AA41AA41ED2F12003B7
:10554000914030FA03F31943904001EBCC71002CE9
:1055500001EB0451BDE81040A8BF704701F1C04104
:105560004FF0000001F000417047B0FA80F310FAEC
:1055700003F100D110BDE41A173C4805C90AE4E75D
:1055800001EB045110BD491001EB0451BDE810407E
:105590004FEA300002E04FF0000170474A0008BFB8
:1055A0000042F8D0B2F5001F28BF704701F000415B
:1055B0004FF0000070479EEA445F07D011EA5E0F8B
:1055C000BDE8104004BF002100207047BDE8104036
:1055D00070B5FFF7BFFE00BF40DFF63E83F000412D
:1055E000104670470000E0FF43004FEAD30C4FEA3B
:1055F0003C0C43401FBF40070CF1605113F0FE4FBD
:1056000070471CF0006F03D100200CF00041704780
:105610000CF0004343EA507010B540EACC0000F0B3
:1056200022FA00BF000000924FEA0001FFF7E0BE3F
:105630004FF000414FF00000A1F50021704700003D
:1056400090EA010F48BF81F0004100F16882421AE0
:105650003CBF801A89184FEAD0524FF07F4C1CEAA9
:10566000410FA2EBD15318BF9CEA026F00F03B80C0
:105670004FF0004C4CEA00204CEA012121FA03FCD7
:1056800010EB0C0C1ED202F1FF325FEA1C2040EB43
:10569000C25038BF70471CF07F0F4FEA400C18BF54
:1056A000BCF17F4F38BF7047C3F12003994008BF5A
:1056B00020F00100BCF17F4F38BF7047A0F1C0401F
:1056C00000F017BA4FEA3C00000A40EBC25028BF76
:1056D0001CF0FF0F4FEA400CE6D018BFBCF17F4F23
:1056E00038BF7047EAE79CEA026F05D010EA5C0F0A
:1056F00008BF00F00040704710B500F0B4F900BFDB
:1057000064FBBE3E014800F07ABA00BF0000C07FD3
:105710004FF47F0C1CEAD0121EBF1CEAD11392EA90
:105720000C0F93EA0C0F00F0858090EA010F48BF40
:1057300042F4807240F4000C41F400002CF07F41F0
:1057400020F07F4000B58142A2EB03020FF2081C5B
:10575000ACEB504EC0F100009EF800E04FEA4E0E58
:1057600000FB0EFC38BF49004FEA2C1C02F5FA0280
:105770000CFB0EF34FEACE1E4FEA112C4FEAC1216B
:105780000EEB635E42EB22420EFB0CFC4FEA1C5315
:1057900000FB03114FEA112C4FEA01310EFB0CFC08
:1057A0004FEADC4C00FB0C11C14228BF09184CEB3E
:1057B00003335DF804EB10EB410143EBC250B2F54B
:1057C0007C0F38BF704729D512F0F00F1CBF00F1D5
:1057D000C04000F000407047008182838485868746
:1057E00088898B8C8D8E8F919293959697999A9CA0
:1057F0009D9FA0A2A3A5A7A8AAACAEB0B2B3B5B70F
:10580000B9BCBEC0C2C5C7C9CCCED1D4D7D9DCDFE4
:10581000E2E6E9ECF0F3F7FAFE0000004FEA400C94
:105820000CF1807CBCF17E4F28BF7047B0F1C040C6
:1058300000F05FB990EA010F0CEAD11348BF42F4BF
:105840008072624538BF634507D213F47F0F16D0CC
:1058500080EA010000F00040704710B500F003F945
:10586000097EFC3E00F005B880EA010000F000402F
:10587000704780EA010000F0004000F03AB912F4ED
:105880007F0F04BF0248704780EA010000F031B981
:105890000000C07F41000B0ED3F19E0208D950F4E6
:1058A00000034FEA032323FA02F048BF4042704747
:1058B00010B500F0D8F800BF49922480002070474E
:1058C0006FF0004282EA200070470000C10DD1F164
:1058D0009E0206DB4FEA002343F0004323FA02F066
:1058E0007047004207D54FEA4001B1F1FE4F02D2A6
:1058F0004FF00000704710B500F0B5F849922480D1
:10590000002070476FEA20007047000010F000414F
:1059100048BF4042B0FA80F310FA03F2C3F19D038E
:105920000BD051EAC35101EB1220530638BF704728
:1059300000F1010008BF20F001007047B0FA80F3C9
:1059400010FA03F2C3F19D030AD0D90501EB12202E
:10595000530638BF704700F1010008BF20F0010076
:10596000704700004FF47F0C1CEAD0121EBF1CEAE7
:10597000D11392EA0C0F93EA0C0F00F0478090EAE3
:10598000010F48BF42F480724FF0004C4CEA0020F7
:105990004CEA012102EB0302A0FB0113A2F5000275
:1059A000002918BF43F001035B0028BF4FEA33030F
:1059B00042EB22425FEA132C4CEBC2502EBFBCEBF1
:1059C000436FB2F57C0F70474FEA036CBCF1004F98
:1059D00008BF20F00100B2F57C0F38BF70470BD52F
:1059E00082F0FF0212F5803FC8BF704700F1C0404F
:1059F000D8BF00F00040704700F5000C5FEA4C0C87
:105A000048BF7047B0F1C04000F073B890EA010F92
:105A10000CEAD11348BF42F48072624538BF634537
:105A200004D280EA010000F00040704710B500F099
:105A30001AF800BF8900013E00F007B800F009B86D
:105A40005FEA410C5FEA1C6C08D080EA010000F0BC
:105A500050B85FEA400C5FEA1C6CF6D14FF0004092
:105A6000A0F5800070470EF1020E2EF0030E5EF8D6
:105A7000044B244204D44FEA4102B2F17F4F11D8C3
:105A80004FEA4003B3F17F4F0CD80ED14FEAD07CE0
:105A9000B2F17F4F0CEB4C0C0CF1020C08BF4CEB3D
:105AA000D17C04E04FF0080C01E04FEAD17C0CEB14
:105AB0004C0324FA03F404F00704B4F1040C06D2F6
:105AC0000EEB840CBDE810404CF0010C6047DFE8A1
:105AD0000CF0070802024FF00040A0F5800010BD56
